{
  "_format": "hh-sol-artifact-1",
  "contractName": "BLSKeyCache",
  "sourceName": "contracts/BLSKeyCache.sol",
  "abi": [
    {
      "inputs": [
        {
          "internalType": "uint256[4]",
          "name": "key",
          "type": "uint256[4]"
        }
      ],
      "name": "registerPublicKey",
      "outputs": [],
      "stateMutability": "nonpayable",
      "type": "function"
    }
  ],
  "bytecode": "0x608060405234801561001057600080fd5b506101e2806100206000396000f3fe608060405234801561001057600080fd5b506004361061002b5760003560e01c8063ad447d6114610030575b600080fd5b6100936004803603608081101561004657600080fd5b8101908080608001906004806020026040519081016040528092919082600460200280828437600081840152601f19601f8201169050808301925050505050509192919290505050610095565b005b65ffffffffffff8016600160009054906101000a900465ffffffffffff1665ffffffffffff16106100c557600080fd5b80600080600160009054906101000a900465ffffffffffff1665ffffffffffff1665ffffffffffff16815260200190815260200160002090600461010a92919061014f565b506001600081819054906101000a900465ffffffffffff168092919060010191906101000a81548165ffffffffffff021916908365ffffffffffff1602179055505050565b826004810192821561017e579160200282015b8281111561017d578251825591602001919060010190610162565b5b50905061018b919061018f565b5090565b5b808211156101a8576000816000905550600101610190565b509056fea264697066735822122097d8ebe42fd010be4f07606534d80eb7490148fcdf65121901b30eeee6f5424464736f6c63430007040033",
  "linkReferences": {},
  "deployedLinkReferences": {}
}